:020000040800F2
:100000000028002025190008B5180008BB180008B2
:10001000C1180008C7180008CD180008000000002B
:10002000000000000000000000000000D3180008DD
:10003000DF18000800000000EB180008F71800089F
:100040006D1900086D1900086D1900086D19000878
:100050006D1900086D1900086D1900086D19000868
:100060006D1900086D1900086D1900086D19000858
:100070006D1900086D1900086D1900086D19000848
:100080006D1900086D1900086D1900086D19000838
:100090006D1900086D1900086D1900086D19000828
:1000A0006D1900086D1900086D1900086D19000818
:1000B000051900086D190008000000006D190008FE
:1000C0006D19000800000000000000006D19000814
:1000D000000000006D1900086D1900080000000004
:1000E0006D1900086D1900086D1900080000000066
:1000F0000000000000000000000000000000000000
:0C01000000000000000000005FF808F1A3
:10010C0010B5054C237833B9044B13B10448AFF345
:10011C0000800123237010BD40000020000000006F
:10012C00942F000808B5034B1BB103490348AFF3E8
:10013C00008008BD0000000044000020942F00083F
:10014C0080B500AF1F4B1B68022B21D0022B36DC75
:10015C00002B02D0012B07D031E01A4B01221A6080
:10016C00642001F005FB2AE0174B1B68012B23D1FF
:10017C00154B00221A6000224FF48071134801F0D5
:10018C00F2FE104B02221A60642001F0F1FA13E027
:10019C000D4B1B68012B11D10B4B00221A60012255
:1001AC004FF48071094801F0DEFE064B01221A6003
:1001BC00642001F0DDFA01E000BF00E000BF00BFE9
:1001CC0080BD00BF740000208C000020000801409E
:1001DC0080B400AF034B01221A6000BFBD4680BC47
:1001EC00704700BF5C00002080B400AF034B0122BD
:1001FC001A6000BFBD4680BC704700BF6000002085
:10020C0080B400AF034B01221A6000BFBD4680BC16
:10021C00704700BF6800002080B500AF1F4B1B6803
:10022C001F4A13601F4B1B681C4A13604FF400518C
:10023C001D4801F081FE03461A461A4B1A60184BF2
:10024C001A68164B1B689A4225D1144B1A68154B29
:10025C001B689A421FD1154B1A68124B1B689A42A5
:10026C000DD0104B1B68114A13600E4B1B68002BF2
:10027C0011D1FFF7ADFF0E4BC8221A600BE00C4BEF
:10028C001B68013B0A4A1360094B1B68002B02D107
:10029C00064B01221A6000BF80BD00BF0400002085
:1002AC000000002008000020001001402400002065
:1002BC003000002080B500AF204B1B68204A136033
:1002CC00204B1B681D4A13604FF480411E4801F0FF
:1002DC0033FE03461A461B4B1A60194B1A68174B10
:1002EC001B689A4228D1154B1A68164B1B689A4208
:1002FC0022D1164B1A68134B1B689A420DD0114B26
:10030C001B68124A13600F4B1B68002B14D1FFF7AC
:10031C006BFF0F4BC8221A600EE00D4B1B68013BA4
:10032C000B4A13600A4B1B68002B05D1094B0122A9
:10033C001A60064B01221A6000BF80BD100000201D
:10034C000C000020140000200010014028000020A8
:10035C00300000206400002080B500AF204B1B68EB
:10036C00204A1360204B1B681D4A13604FF4004158
:10037C001E4801F0E1FD03461A461B4B1A60194B4F
:10038C001A68174B1B689A4228D1154B1A68164BE2
:10039C001B689A4222D1164B1A68134B1B689A425F
:1003AC000DD0114B1B68124A13600F4B1B68002BAE
:1003BC0014D1FFF725FF0F4BC8221A600EE00D4B2E
:1003CC001B68013B0B4A13600A4B1B68002B05D1C1
:1003DC00094B01221A60064B01221A6000BF80BD36
:1003EC001C000020180000202000002000100140FC
:1003FC002C000020300000206C00002080B582B062
:10040C0000AF78607B68092B00F2808101A252F862
:10041C0023F000BF4904000891040008D904000827
:10042C002105000869050008B1050008F905000858
:10043C004106000889060008D106000800220221A6
:10044C00B54801F090FD00220421B34801F08BFD6A
:10045C0000220821B04801F086FD00221021AE4890
:10046C0001F081FD00222021AB4801F07CFD00222F
:10047C004021A94801F077FD01228021A64801F016
:10048C0072FD44E101220221A34801F06CFD00221F
:10049C000421A14801F067FD002208219E4801F0CB
:1004AC0062FD012210219C4801F05DFD01222021FA
:1004BC00994801F058FD01224021974801F053FD65
:1004CC0001228021944801F04EFD20E100220221FE
:1004DC00914801F048FD002204218F4801F043FDB2
:1004EC00012208218C4801F03EFD002210218A488F
:1004FC0001F039FD00222021874801F034FD012252
:10050C004021854801F02FFD00228021824801F016
:10051C002AFDFCE0002202217F4801F024FD00228C
:10052C0004217D4801F01FFD002208217A4801F0CA
:10053C001AFD00221021784801F015FD012220211E
:10054C00754801F010FD01224021734801F00BFDAC
:10055C0000228021704801F006FDD8E00122022122
:10056C006D4801F000FD002204216B4801F0FBFCFA
:10057C0000220821684801F0F6FC0122102166488F
:10058C0001F0F1FC01222021634801F0ECFC002277
:10059C004021614801F0E7FC002280215E4801F017
:1005AC00E2FCB4E0002202215B4801F0DCFC0122F9
:1005BC000421594801F0D7FC00220821564801F0CB
:1005CC00D2FC00221021544801F0CDFC0122202144
:1005DC00514801F0C8FC002240214F4801F0C3FCF7
:1005EC00002280214C4801F0BEFC90E00022022148
:1005FC00494801F0B8FC01220421474801F0B3FC42
:10060C0000220821444801F0AEFC0022102142488F
:10061C0001F0A9FC002220213F4801F0A4FC00229B
:10062C0040213D4801F09FFC002280213A4801F016
:10063C009AFC6CE000220221374801F094FC002265
:10064C000421354801F08FFC00220821324801F0CA
:10065C008AFC01221021304801F085FC0122202166
:10066C002D4801F080FC012240212B4801F07BFC3D
:10067C0001228021284801F076FC48E0002202216A
:10068C00254801F070FC00220421234801F06BFC8A
:10069C0000220821204801F066FC002210211E488F
:1006AC0001F061FC002220211B4801F05CFC0022BF
:1006BC004021194801F057FC00228021164801F016
:1006CC0052FC24E000220221134801F04CFC0022D1
:1006DC000421114801F047FC002208210E4801F0CA
:1006EC0042FC002210210C4801F03DFC012220218B
:1006FC00094801F038FC00224021074801F033FC86
:10070C0000228021044801F02EFC00E000BF00BF55
:10071C000837BD4680BD00BF0008014080B500AF62
:10072C00934B1B68132B00F21A8201A252F823F090
:10073C008D0700086B0B00086B0B00086B0B000897
:10074C006B0B00086B0B00086B0B00086B0B0008A5
:10075C006B0B00086B0B0008A1070008FB070008D7
:10076C005B080008BB0800081B0900089109000879
:10077C00F1090008510A0008AF0A00080D0B000827
:10078C000020FFF73BFE7A4B00221A60C82000F0D5
:10079C00DBFFF9E10020FFF731FE764B1B68012BE4
:1007AC0005D1744B00221A60642000F0CDFF724B0F
:1007BC001B68012B05D1704B00221A606C4B012277
:1007CC001A606E4B1B68012B05D16C4B00221A6012
:1007DC00674B00221A606A4B1B68012B40F0C181E9
:1007EC00674B00221A60624B09221A60B9E10120A2
:1007FC00FFF704FE5F4B1B68012B08D15D4B0022F9
:10080C001A605B4B0A221A60642000F09DFF5A4B61
:10081C001B68012B05D1584B00221A60544B022245
:10082C001A60564B1B68012B05D1544B00221A60E1
:10083C004F4B00221A60524B1B68012B40F09381E6
:10084C004F4B00221A604A4B01221A608BE10220A6
:10085C00FFF7D4FD474B1B68012B08D1454B0022F9
:10086C001A60434B0B221A60642000F06DFF424B60
:10087C001B68012B05D1404B00221A603C4B032214
:10088C001A603E4B1B68012B05D13C4B00221A60B1
:10089C00374B00221A603A4B1B68012B40F06581E4
:1008AC00374B00221A60324B01221A605DE10320A3
:1008BC00FFF7A4FD2F4B1B68012B08D12D4B0022F9
:1008CC001A602B4B0C221A60642000F03DFF2A4B5F
:1008DC001B68012B05D1284B00221A60244B0422E3
:1008EC001A60264B1B68012B05D1244B00221A6081
:1008FC001F4B00221A60224B1B68012B40F03781E2
:10090C001F4B00221A601A4B02221A602FE104209E
:10091C00FFF774FD174B1B68012B08D1154B0022F8
:10092C001A60134B0D221A60642000F00DFF124B5D
:10093C001B68012B05D1104B00221A600C4B0522B1
:10094C001A600E4B1B68012B05D10C4B00221A6050
:10095C00074B00221A600A4B1B68012B40F00981DF
:10096C00074B00221A60024B03221A6001E100BF00
:10097C007000002088000020600000205C00002037
:10098C00680000200520FFF739FD804B1B68012B08
:10099C0008D17E4B00221A607D4B0E221A60642017
:1009AC0000F0D2FE7B4B1B68012B05D1794B00224A
:1009BC001A60774B06221A60774B1B68012B05D106
:1009CC00754B00221A60724B00221A60734B1B6825
:1009DC00012B40F0D080714B00221A606C4B04222A
:1009EC001A60C8E00620FFF709FD684B1B68012B55
:1009FC0008D1664B00221A60654B0F221A606420E6
:100A0C0000F0A2FE634B1B68012B05D1614B002249
:100A1C001A605F4B07221A605F4B1B68012B05D1D4
:100A2C005D4B00221A605A4B00221A605B4B1B680C
:100A3C00012B40F0A280594B00221A60544B052226
:100A4C001A609AE00720FFF7D9FC504B1B68012B6A
:100A5C0008D14E4B00221A604D4B10221A606420B4
:100A6C0000F072FE4B4B1B68012B05D1494B002249
:100A7C001A60474B08221A60474B1B68012B05D1A3
:100A8C00454B00221A60424B00221A60434B1B68F4
:100A9C00012B74D1414B00221A603D4B06221A6087
:100AAC006DE00820FFF7AAFC384B1B68012B08D11E
:100ABC00364B00221A60364B11221A60642000F06B
:100ACC0043FE344B1B68012B05D1324B00221A60BC
:100ADC002F4B09221A60304B1B68012B05D12E4B72
:100AEC0000221A602A4B00221A602C4B1B68012B27
:100AFC0047D12A4B00221A60254B07221A6040E08E
:100B0C000920FFF77BFC214B1B68012B08D11F4BE5
:100B1C0000221A601E4B12221A60642000F014FE90
:100B2C001C4B1B68012B05D11A4B00221A60184B69
:100B3C0009221A60184B1B68012B05D1164B002299
:100B4C001A60134B00221A60144B1B68012B1AD12C
:100B5C00124B00221A600E4B08221A6013E000BFE1
:100B6C0012E000BF10E000BF0EE000BF0CE000BFC1
:100B7C000AE000BF08E000BF06E000BF04E000BFD1
:100B8C0002E000BF00E000BF00BF80BD8800002075
:100B9C0070000020600000205C0000206800002035
:100BAC0080B500AF974B1B68143B092B00F21281E8
:100BBC0001A252F823F000BFED0B0008210C000835
:100BCC00550C0008890C0008BD0C0008F10C00083D
:100BDC00210D0008510D0008810D0008B10D000811
:100BEC000020FFF70BFC884B1B68012B40F0F480B6
:100BFC00854B00221A60854B1B68012B40F0EC8062
:100C0C00824B00221A607F4B15221A60642000F080
:100C1C0087FDE1E00120FFF7F1FB7B4B1B68012B0B
:100C2C0040F0DC80784B00221A60784B1B68012B5B
:100C3C0040F0D480754B00221A60724B16221A6059
:100C4C00642000F06DFDC9E00220FFF7D7FB6E4B6E
:100C5C001B68012B40F0C4806B4B00221A606B4B5D
:100C6C001B68012B40F0BC80684B00221A60654B5E
:100C7C0017221A60642000F053FDB1E00320FFF747
:100C8C00BDFB614B1B68012B40F0AC805E4B00221E
:100C9C001A605E4B1B68012B40F0A4805B4B00225A
:100CAC001A60584B18221A60642000F039FD99E044
:100CBC000420FFF7A3FB544B1B68012B40F09480DE
:100CCC00514B00221A60514B1B68012B40F08C8059
:100CDC004E4B00221A604B4B19221A60642000F014
:100CEC001FFD81E00520FFF789FB474B1B68012B9B
:100CFC007CD1454B00221A60444B1B68012B75D1EB
:100D0C00424B00221A603F4B1A221A60642000F0FA
:100D1C0007FD6BE00620FFF771FB3B4B1B68012BBB
:100D2C0066D1394B00221A60384B1B68012B5FD1FE
:100D3C00364B00221A60334B1B221A60642000F0E1
:100D4C00EFFC55E00720FFF759FB2F4B1B68012BDD
:100D5C0050D12D4B00221A602C4B1B68012B49D112
:100D6C002A4B00221A60274B1C221A60642000F0C8
:100D7C00D7FC3FE00820FFF741FB234B1B68012BFE
:100D8C003AD1214B00221A60204B1B68012B33D126
:100D9C001E4B00221A601B4B1B221A60642000F0B1
:100DAC00BFFC29E00920FFF729FB174B1B68012B1F
:100DBC0024D1154B00221A60144B1B68012B1DD13A
:100DCC00124B00221A600F4B14221A60642000F0A0
:100DDC00A7FC13E000BF12E000BF10E000BF0EE064
:100DEC0000BF0CE000BF0AE000BF08E000BF06E057
:100DFC0000BF04E000BF02E000BF00E000BF00BF86
:100E0C0080BD00BF70000020840000206400002022
:100E1C0080B500AF854B1B68092B00F2518301A2F2
:100E2C0052F823F0590E0008F90E0008990F00082B
:100E3C0055100008F510000895110008351200082F
:100E4C00F1120008911300082F1400080020FFF77E
:100E5C00D5FA774B1B68012B05D1754B00221A6014
:100E6C00724B00221A60734B1B68012B08D1714B1B
:100E7C0000221A606D4B01221A60C82000F064FC3D
:100E8C006D4B1B68012B08D16B4B00221A60674B12
:100E9C0014221A60642000F043FC684B1B68012B81
:100EAC0008D1664B00221A60604B09221A60C820D8
:100EBC0000F04AFC624B1B68012B08D1604B0022EE
:100ECC001A605A4B14221A60642000F029FC5D4B06
:100EDC001B68012B40F0F6825A4B00221A60534BD0
:100EEC000A221A60C82000F02FFCEBE20120FFF769
:100EFC0085FA4F4B1B68012B05D14D4B00221A6014
:100F0C004A4B00221A604B4B1B68012B08D1494BF2
:100F1C0000221A60454B02221A60C82000F014FC13
:100F2C00454B1B68012B08D1434B00221A603F4BE9
:100F3C0015221A60642000F0F3FB414B1B68012B57
:100F4C0008D13F4B00221A60384B15221A606420DE
:100F5C0000F0E6FB394B1B68012B08D1374B002204
:100F6C001A60324B00221A60C82000F0EDFB354BA2
:100F7C001B68012B40F0A882324B00221A602B4BCD
:100F8C000B221A60C82000F0DFFB9DE20220FFF765
:100F9C0035FA274B1B68012B05D1254B00221A6013
:100FAC00224B00221A60234B1B68012B08D1214BCA
:100FBC0000221A601D4B03221A60C82000F0C4FBEB
:100FCC001E4B1B68012B08D11C4B00221A60174BBF
:100FDC0001221A60C82000F0B7FB1A4B1B68012BCA
:100FEC0008D1184B00221A60104B0C221A60C82032
:100FFC0000F0AAFB104B1B68012B08D10E4B0022F2
:10100C001A600A4B16221A60642000F089FB0C4B04
:10101C001B68012B40F05A82094B00221A60034BCB
:10102C0016221A60642000F07BFB4FE27000002057
:10103C005C0000206000002064000020680000209C
:10104C006C000020880000200320FFF7D7F99E4B8E
:10105C001B68012B05D19C4B00221A609B4B002274
:10106C001A609B4B1B68012B08D1994B00221A600C
:10107C00964B04221A60C82000F066FB954B1B6847
:10108C00012B08D1934B00221A60904B02221A605C
:10109C00C82000F059FB904B1B68012B08D18E4BDC
:1010AC0000221A60894B0D221A60C82000F04CFBFC
:1010BC008A4B1B68012B08D1884B00221A60834B8A
:1010CC0017221A60642000F02BFB854B1B68012B48
:1010DC0040F0FE81824B00221A607C4B17221A6072
:1010EC00642000F01DFBF3E10420FFF787F9764B39
:1010FC001B68012B05D1744B00221A60734B002224
:10110C001A60734B1B68012B08D1714B00221A60BB
:10111C006E4B05221A60C82000F016FB6D4B1B6845
:10112C00012B08D16B4B00221A60684B03221A600A
:10113C00C82000F009FB684B1B68012B08D1664BDB
:10114C0000221A60614B0E221A60C82000F0FCFAD3
:10115C00624B1B68012B08D1604B00221A605B4B61
:10116C0018221A60642000F0DBFA5D4B1B68012B1F
:10117C0040F0B0815A4B00221A60544B18221A606E
:10118C00642000F0CDFAA5E10520FFF737F94E4BAE
:10119C001B68012B05D14C4B00221A604B4B0022D3
:1011AC001A604B4B1B68012B08D1494B00221A606B
:1011BC00464B06221A60C82000F0C6FA454B1B6845
:1011CC00012B08D1434B00221A60404B04221A60B9
:1011DC00C82000F0B9FA404B1B68012B08D13E4BDC
:1011EC0000221A60394B0F221A60C82000F0ACFAAA
:1011FC003A4B1B68012B08D1384B00221A60334B39
:10120C0019221A60642000F08BFA354B1B68012BF5
:10121C0040F06281324B00221A602C4B19221A606A
:10122C00642000F07DFA57E10620FFF7E7F8264B23
:10123C001B68012B05D1244B00221A60234B002282
:10124C001A60234B1B68012B08D1214B00221A601A
:10125C001E4B07221A60C82000F076FA1D4B1B6843
:10126C00012B08D11B4B00221A60184B05221A6067
:10127C00C82000F069FA184B1B68012B08D1164BDB
:10128C0000221A60114B10221A60C82000F05CFA80
:10129C00124B1B68012B08D1104B00221A600B4B10
:1012AC001A221A60642000F03BFA0D4B1B68012BCC
:1012BC0040F014810A4B00221A60044B1A221A6067
:1012CC00642000F02DFA09E15C0000207000002081
:1012DC0060000020680000208800002064000020CE
:1012EC006C0000200720FFF789F8814B1B68012B4D
:1012FC0005D17F4B00221A607E4B00221A607E4B78
:10130C001B68012B08D17C4B00221A60794B0822F8
:10131C001A60C82000F018FA784B1B68012B08D112
:10132C00764B00221A60734B06221A60C82000F01C
:10133C000BFA734B1B68012B08D1714B00221A60FE
:10134C006C4B11221A60C82000F0FEF96D4B1B6823
:10135C00012B08D16B4B00221A60664B1B221A60C2
:10136C00642000F0DDF9684B1B68012B40F0B8805D
:10137C00654B00221A605F4B1B221A60642000F040
:10138C00CFF9ADE00820FFF739F8594B1B68012B5A
:10139C0005D1574B00221A60564B00221A60564B4F
:1013AC001B68012B08D1544B00221A60514B0922A7
:1013BC001A60C82000F0C8F9504B1B68012B08D1EB
:1013CC004E4B00221A604B4B07221A60C82000F0CB
:1013DC00BBF94B4B1B68012B08D1494B00221A60FF
:1013EC00444B12221A60C82000F0AEF9454B1B6822
:1013FC00012B08D1434B00221A603E4B1C221A6071
:10140C00642000F08DF9404B1B68012B6AD13E4BD8
:10141C0000221A60374B1C221A60642000F080F9FD
:10142C0060E00920FEF7EAFF314B1B68012B05D168
:10143C002F4B00221A602F4B00221A602E4B1B6878
:10144C00012B08D12C4B00221A602A4B00221A6067
:10145C00C82000F079F9294B1B68012B08D1274BC8
:10146C0000221A60234B08221A60C82000F06CF985
:10147C00234B1B68012B08D1214B00221A601D4BFA
:10148C0013221A60C82000F05FF91E4B1B68012B59
:10149C0008D11C4B00221A60164B1D221A606420C6
:1014AC0000F03EF9184B1B68012B1DD1164B002286
:1014BC001A60104B1D221A60642000F031F913E001
:1014CC0000BF12E000BF10E000BF0EE000BF0CE058
:1014DC0000BF0AE000BF08E000BF06E000BF04E068
:1014EC0000BF02E000BF00E000BF00BF80BD00BF36
:1014FC005C000020700000206000002068000020CC
:10150C0088000020640000206C00002080B500AF33
:10151C0000F028FA00F018F800F09EF800F050F8EF
:10152C00074801F071F9074B00221A60FFF770FCB5
:10153C00FEF706FEFFF7F2F8FFF732FBF6E700BF07
:10154C00900000207000002080B590B000AF07F133
:10155C00180328220021184601F00EFD3B1D002225
:10156C001A605A609A60DA601A610223BB61012327
:10157C00BB621023FB6200237B6307F11803184640
:10158C0000F00AFD0346002B01D000F0C3F80F2336
:10159C007B600023BB600023FB6000233B610023C6
:1015AC007B613B1D0021184600F076FF0346002BA3
:1015BC0001D000F0AFF800BF4037BD4680BD000041
:1015CC0080B586B000AF07F1080300221A605A609C
:1015DC009A60DA603B4600221A605A601D4B4FF04D
:1015EC0080421A601B4B41F63F725A60194B002225
:1015FC009A60184B0922DA60164B00221A61154BBF
:10160C0000229A61134801F0AFF80346002B01D079
:10161C0000F080F84FF48053BB6007F108031946C3
:10162C000C4801F045FA0346002B01D000F072F88B
:10163C0000233B6000237B603B461946054801F0C4
:10164C000DFC0346002B01D000F064F800BF1837E6
:10165C00BD4680BD9000002080B586B000AF07F17C
:10166C00080300221A605A609A60DA601E4B9B696C
:10167C001D4A43F0100393611B4B9B6903F010034D
:10168C007B607B68184B9B69174A43F0040393619A
:10169C00154B9B6903F004033B603B6800224FF43D
:1016AC00FF71124800F05FFC4FF46043BB600023F5
:1016BC00FB6001233B6107F1080319460C4800F05D
:1016CC00C1FA4FF4FF73BB600123FB6000233B6145
:1016DC0002237B6107F108031946044800F0B2FAB3
:1016EC0000BF1837BD4680BD001002400008014005
:1016FC000010014080B582B000AF786000F04CF86B
:10170C00FEF78AFDFEF7D6FDFEF726FE00BF083772
:10171C00BD4680BD80B400AF72B600BFFEE70000CE
:10172C0080B483B000AF7860054A7B681360054BCA
:10173C0000221A6000BF0C37BD4680BC704700BF4A
:10174C00780000208400002080B483B000AF786063
:10175C00054A7B681360054B00221A6000BF0C37EA
:10176C00BD4680BC704700BF7C0000208800002074
:10177C0080B483B000AF7860054A7B681360054B7A
:10178C0000221A6000BF0C37BD4680BC704700BFFA
:10179C00800000208C00002080B400AF194B1B6827
:1017AC00002B04D0174B1B68013B164A1360154BDA
:1017BC001B68002B02DC144B01221A60134B1B68B4
:1017CC00002B04D0114B1B68013B104A13600F4BCC
:1017DC001B68002B02DC0E4B01221A600D4B1B68A0
:1017EC00002B04D00B4B1B68013B0A4A1360094BBE
:1017FC001B68002B02DC084B01221A6000BFBD469F
:10180C0080BC704778000020840000207C00002001
:10181C0088000020800000208C00002080B483B061
:10182C0000AF0E4B9B690D4A43F0010393610B4BC8
:10183C009B6903F001037B607B68084BDB69074AFB
:10184C0043F08053D361054BDB6903F080533B605D
:10185C003B6800BF0C37BD4680BC7047001002408F
:10186C0080B584B000AF78607B681B68B3F1804FA3
:10187C0013D10C4BDB690B4A43F00103D361094BC9
:10188C00DB6903F00103FB60FB68002200211C20D4
:10189C0000F0A1F91C2000F0BAF900BF1037BD46CA
:1018AC0080BD00BF0010024080B400AFFEE780B4E2
:1018BC0000AFFEE780B400AFFEE780B400AFFEE7F8
:1018CC0080B400AFFEE780B400AF00BFBD4680BC63
:1018DC00704780B400AF00BFBD4680BC704780B479
:1018EC0000AF00BFBD4680BC704780B500AF00F0B4
:1018FC007FF800BF80BD000080B500AF024800F04B
:10190C00CFFF00BF80BD00BF9000002080B400AFAF
:10191C0000BFBD4680BC70470C480D490D4A0023E2
:10192C0002E0D458C4500433C4188C42F9D30A4A88
:10193C000A4C002301E013600432A242FBD3FFF7F0
:10194C00E5FF01F0F5FAFFF7E1FD7047000000201C
:10195C0040000020D42F000840000020DC000020B4
:10196C00FEE7000080B500AF084B1B68074A43F048
:10197C0010031360032000F023F90F2000F008F887
:10198C00FFF74CFF0023184680BD00BF002002402B
:10199C0080B582B000AF7860124B1A68124B1B787E
:1019AC0019464FF47A73B3FBF1F3B2FBF3F3184619
:1019BC0000F03BF90346002B01D001230EE07B68BD
:1019CC000F2B0AD8002279684FF0FF3000F003F992
:1019DC00064A7B681360002300E001231846083791
:1019EC00BD4680BD340000203C00002038000020A3
:1019FC0080B400AF054B1B781A46054B1B6813448B
:101A0C00034A136000BFBD4680BC70473C000020F9
:101A1C00D800002080B400AF024B1B681846BD46AE
:101A2C0080BC7047D800002080B485B000AF7860CF
:101A3C007B6803F00703FB600C4BDB68BB60BA6888
:101A4C004FF6FF031340BB60FB681A02BB681343DD
:101A5C0043F0BF6343F40033BB60044ABB68D360FC
:101A6C0000BF1437BD4680BC704700BF00ED00E0DE
:101A7C0080B400AF044BDB681B0A03F00703184665
:101A8C00BD4680BC704700BF00ED00E080B483B061
:101A9C0000AF0346FB7197F90730002B0BDBFB798A
:101AAC0003F01F02064997F907305B09012000FA81
:101ABC0002F241F8232000BF0C37BD4680BC7047B2
:101ACC0000E100E080B483B000AF03463960FB71E5
:101ADC0097F90730002B0ADB3B68DAB20C4997F90F
:101AEC0007301201D2B20B4483F800230AE03B68A2
:101AFC00DAB20849FB7903F00F03043B1201D2B2AE
:101B0C000B441A7600BF0C37BD4680BC704700BF33
:101B1C0000E100E000ED00E080B489B000AFF860B7
:101B2C00B9607A60FB6803F00703FB61FB69C3F1E2
:101B3C000703042B28BF0423BB61FB690433062B6A
:101B4C0002D9FB69033B00E000237B614FF0FF32BD
:101B5C00BB6902FA03F3DA43BB681A407B699A400B
:101B6C004FF0FF317B6901FA03F3D9437B680B40DB
:101B7C00134318462437BD4680BC704780B582B0ED
:101B8C0000AF78607B68013BB3F1807F01D3012308
:101B9C000FE00A4A7B68013B53600F214FF0FF3086
:101BAC00FFF790FF054B00229A60044B07221A6046
:101BBC00002318460837BD4680BD00BF10E000E08A
:101BCC0080B582B000AF78607868FFF72DFF00BF5A
:101BDC000837BD4680BD80B586B000AF0346B960FE
:101BEC007A60FB7300237B61FFF742FF78617A68B0
:101BFC00B9687869FFF790FF024697F90F301146E4
:101C0C001846FFF75FFF00BF1837BD4680BD80B593
:101C1C0082B000AF0346FB7197F907301846FFF707
:101C2C0035FF00BF0837BD4680BD80B582B000AF20
:101C3C0078607868FFF7A2FF034618460837BD4660
:101C4C0080BD000080B48BB000AF78603960002399
:101C5C007B6200233B6248E101227B6A02FA03F3B8
:101C6C00FB613B681B68FA691340BB61BA69FB698D
:101C7C009A4240F037813B685B68A34A93425ED03E
:101C8C00A14A934275D8A14A934258D09F4A934295
:101C9C006FD89F4A934252D09D4A934269D89D4A2D
:101CAC0093424CD09B4A934263D89B4A934246D072
:101CBC00994A93425DD8122B2AD8122B59D801A2DB
:101CCC0052F823F04B1D0008251D0008371D000895
:101CDC00791D00087F1D00087F1D00087F1D00086E
:101CEC007F1D00087F1D00087F1D00087F1D000858
:101CFC007F1D00087F1D00087F1D00087F1D000848
:101D0C007F1D00087F1D00082D1D0008411D0008C7
:101D1C00824A934213D02CE03B68DB683B6229E09B
:101D2C003B68DB6804333B6224E03B68DB680833C8
:101D3C003B621FE03B68DB680C333B621AE03B689C
:101D4C009B68002B02D104233B6213E03B689B6829
:101D5C00012B05D108233B627B68FA691A6109E003
:101D6C0008233B627B68FA695A6103E000233B62FB
:101D7C0000E000BFBB69FF2B01D87B6801E07B68EA
:101D8C0004337B61BB69FF2B02D87B6A9B0002E0AA
:101D9C007B6A083B9B003B617B691A680F213B699E
:101DAC0001FA03F3DB431A40396A3B6901FA03F386
:101DBC001A437B691A603B685B6803F08053002B05
:101DCC0000F09080564B9B69554A43F00103936198
:101DDC00534B9B6903F00103BB60BB68514A7B6AA0
:101DEC009B08023352F82330FB607B6A03F0030339
:101DFC009B000F2202FA03F3DB43FA681340FB60EB
:101E0C007B68494A93420DD07B68484A934207D07D
:101E1C007B68474A934201D1022304E0032302E08A
:101E2C00012300E000237A6A02F00302920093403F
:101E3C00FA681343FB603B497B6A9B080233FA68E0
:101E4C0041F823203B685B6803F48033002B06D0F9
:101E5C00384B1A683749BB6913430B6006E0354BA6
:101E6C001A68BB69DB43334913400B603B685B6802
:101E7C0003F40033002B06D02E4B5A682D49BB6956
:101E8C0013434B6006E02B4B5A68BB69DB43294973
:101E9C0013404B603B685B6803F48013002B06D047
:101EAC00244B9A682349BB6913438B6006E0214B92
:101EBC009A68BB69DB431F4913408B603B685B68C6
:101ECC0003F40013002B06D01A4BDA681949BB69CE
:101EDC001343CB6006E0174BDA68BB69DB4315494B
:101EEC001340CB607B6A01337B623B681A687B6A68
:101EFC0022FA03F3002B7FF4AFAE00BF00BF2C37E8
:101F0C00BD4680BC704700BF00003210000031108D
:101F1C00000022100000211000001210000011100F
:101F2C00001002400000014000080140000C01407C
:101F3C00001001400004014080B485B000AF78600F
:101F4C000B467B807B689A687B881340002B02D001
:101F5C000123FB7301E00023FB73FB7B1846143752
:101F6C00BD4680BC704780B483B000AF78600B4630
:101F7C007B8013467B707B78002B03D07A887B6840
:101F8C001A6103E07B881A047B681A6100BF0C3766
:101F9C00BD4680BC7047000080B586B000AF78604D
:101FAC007B68002B01D101236CE27B681B6803F07A
:101FBC000103002B00F08780924B5B6803F00C034D
:101FCC00042B0CD08F4B5B6803F00C03082B12D145
:101FDC008C4B5B6803F48033B3F5803F0BD1894B9A
:101FEC001B6803F40033002B6CD07B685B68002B00
:101FFC0068D1012346E27B685B68B3F5803F06D16C
:10200C00804B1B687F4A43F4803313602EE07B685F
:10201C005B68002B0CD17B4B1B687A4A23F4803312
:10202C001360784B1B68774A23F4802313601DE000
:10203C007B685B68B3F5A02F0CD1724B1B68714A9F
:10204C0043F4802313606F4B1B686E4A43F4803358
:10205C0013600BE06B4B1B686A4A23F480331360EC
:10206C00684B1B68674A23F4802313607B685B68AA
:10207C00002B13D0FFF7CEFC386108E0FFF7CAFC49
:10208C0002463B69D31A642B01D90323FAE15D4B59
:10209C001B6803F40033002BF0D014E0FFF7BAFCFC
:1020AC00386108E0FFF7B6FC02463B69D31A642B93
:1020BC0001D90323E6E1534B1B6803F40033002BD7
:1020CC00F0D100E000BF7B681B6803F00203002B1B
:1020DC0063D04C4B5B6803F00C03002B0BD0494BCB
:1020EC005B6803F00C03082B1CD1464B5B6803F4B4
:1020FC008033002B16D1434B1B6803F00203002BDB
:10210C0005D07B681B69012B01D00123BAE13D4B43
:10211C001B6823F0F8027B685B69DB0039491343C9
:10212C000B603AE07B681B69002B20D0364B0122F8
:10213C001A60FFF76FFC386108E0FFF76BFC024692
:10214C003B69D31A022B01D903239BE12D4B1B684E
:10215C0003F00203002BF0D02A4B1B6823F0F8028B
:10216C007B685B69DB00274913430B6015E0264B4A
:10217C0000221A60FFF74EFC386108E0FFF74AFCBA
:10218C0002463B69D31A022B01D903237AE11D4B7A
:10219C001B6803F00203002BF0D17B681B6803F073
:1021AC000803002B3AD07B689B69002B19D0174B86
:1021BC0001221A60FFF72EFC386108E0FFF72AFCB9
:1021CC0002463B69D31A022B01D903235AE10D4B6A
:1021DC005B6A03F00203002BF0D0012000F0A6FA9A
:1021EC001CE00A4B00221A60FFF714FC38610FE068
:1021FC00FFF710FC02463B69D31A022B08D90323C4
:10220C0040E100BF00100240000042428004424204
:10221C009E4B5B6A03F00203002BE9D17B681B68C1
:10222C0003F00403002B00F0A6800023FB75974BF2
:10223C00DB6903F08053002B0DD1944BDB69934A7F
:10224C0043F08053D361914BDB6903F08053BB6047
:10225C00BB680123FB758E4B1B6803F48073002B4A
:10226C0018D18B4B1B688A4A43F480731360FFF7B9
:10227C00D1FB386108E0FFF7CDFB02463B69D31A6E
:10228C00642B01D90323FDE0814B1B6803F480739D
:10229C00002BF0D07B68DB68012B06D17B4B1B6AD3
:1022AC007A4A43F0010313622DE07B68DB68002B54
:1022BC000CD1764B1B6A754A23F001031362734BE6
:1022CC001B6A724A23F0040313621CE07B68DB6810
:1022DC00052B0CD16D4B1B6A6C4A43F00403136243
:1022EC006A4B1B6A694A43F0010313620BE0674BAC
:1022FC001B6A664A23F001031362644B1B6A634A30
:10230C0023F0040313627B68DB68002B15D0FFF706
:10231C0081FB38610AE0FFF77DFB02463B69D31A6B
:10232C0041F28832934201D90323ABE0574B1B6A2D
:10233C0003F00203002BEED014E0FFF76BFB3861C7
:10234C000AE0FFF767FB02463B69D31A41F2883279
:10235C00934201D9032395E04C4B1B6A03F0020313
:10236C00002BEED1FB7D012B05D1484BDB69474A95
:10237C0023F08053D3617B68DB69002B00F08180F4
:10238C00424B5B6803F00C03082B61D07B68DB6964
:10239C00022B46D13F4B00221A60FFF73BFB386102
:1023AC0008E0FFF737FB02463B69D31A022B01D931
:1023BC00032367E0354B1B6803F00073002BF0D14F
:1023CC007B681B6AB3F5803F08D1304B5B6823F404
:1023DC0000327B689B682D4913434B602B4B5B6829
:1023EC0023F474127B68196A7B685B6A0B43274978
:1023FC0013434B60274B01221A60FFF70BFB38612C
:10240C0008E0FFF707FB02463B69D31A022B01D900
:10241C00032337E01D4B1B6803F00073002BF0D037
:10242C002FE01C4B00221A60FFF7F4FA386108E029
:10243C00FFF7F0FA02463B69D31A022B01D90323AA
:10244C0020E0124B1B6803F00073002BF0D118E056
:10245C007B68DB69012B01D1012313E00B4B5B681B
:10246C00FB60FB6803F480327B681B6A9A4206D1DE
:10247C00FB6803F470127B685B6A9A4201D00123FB
:10248C0000E0002318461837BD4680BD00100240FE
:10249C00007000406000424280B584B000AF7860AC
:1024AC0039607B68002B01D10123D0E06A4B1B689B
:1024BC0003F007033A689A4210D9674B1B6823F064
:1024CC00070265493B6813430B60634B1B6803F0C1
:1024DC0007033A689A4201D00123B8E07B681B6875
:1024EC0003F00203002B20D07B681B6803F004036D
:1024FC00002B05D0594B5B68584A43F4E06353609A
:10250C007B681B6803F00803002B05D0534B5B68FA
:10251C00524A43F460535360504B5B6823F0F00213
:10252C007B689B684D4913434B607B681B6803F0C9
:10253C000103002B40D07B685B68012B07D1474B14
:10254C001B6803F40033002B15D101237FE07B685B
:10255C005B68022B07D1414B1B6803F00073002B07
:10256C0009D1012373E03D4B1B6803F00203002BE0
:10257C0001D101236BE0394B5B6823F003027B68CC
:10258C005B68364913434B60FFF744FAF8600AE086
:10259C00FFF740FA0246FB68D31A41F288329342A5
:1025AC0001D9032353E02D4B5B6803F00C027B68CD
:1025BC005B689B009A42EBD1274B1B6803F0070327
:1025CC003A689A4210D2244B1B6823F00702224926
:1025DC003B6813430B60204B1B6803F007033A68FE
:1025EC009A4201D0012332E07B681B6803F004039C
:1025FC00002B08D0194B5B6823F4E0627B68DB6826
:10260C00164913434B607B681B6803F00803002BCF
:10261C0009D0124B5B6823F460527B681B69DB00AA
:10262C000E4913434B6000F021F802460B4B5B68DC
:10263C001B0903F00F030A49CB5C22FA03F3094A86
:10264C001360094B1B681846FFF7A2F900231846C4
:10265C001037BD4680BD00BF002002400010024074
:10266C00BC2F0008340000203800002090B48AB041
:10267C0000AF2A4B3C1D0FCB84E80F0040F2012326
:10268C003B800023FB610023BB6100237B620023A2
:10269C007B6100233B62224B5B68FB61FB6903F0AF
:1026AC000C03042B02D0082B03D02DE01D4B3B62F6
:1026BC002DE0FB699B0C03F00F0307F12802134478
:1026CC0013F8243C7B61FB6903F48033002B13D09B
:1026DC00134B5B685B0C03F0010307F128021344F6
:1026EC0013F8283CBB617B690E4A02FB03F2BB6901
:1026FC00B2FBF3F37B6204E07B690B4A02FB03F34E
:10270C007B627B6A3B6202E0064B3B6200BF3B6A2A
:10271C0018462837BD4690BC704700BFAC2F000848
:10272C000010024000127A0000093D0080B485B010
:10273C0000AF78600A4B1B680A4AA2FB03235B0AB2
:10274C007A6802FB03F3FB6000BFFB685A1EFA6059
:10275C00002BF9D100BF00BF1437BD4680BC7047B9
:10276C0034000020D34D621080B582B000AF786089
:10277C007B68002B01D1012341E07B6893F83D304D
:10278C00DBB2002B06D17B68002283F83C207868F2
:10279C00FFF766F87B68022283F83D207B681A6895
:1027AC007B6804331946104600F06AFA7B680122F4
:1027BC0083F846207B68012283F83E207B68012247
:1027CC0083F83F207B68012283F840207B6801223C
:1027DC0083F841207B68012283F842207B68012228
:1027EC0083F843207B68012283F844207B68012214
:1027FC0083F845207B68012283F83D20002318468E
:10280C000837BD4680BD000080B485B000AF78604D
:10281C007B6893F83D30DBB2012B01D0012335E00E
:10282C007B68022283F83D207B681B68DA687B6832
:10283C001B6842F00102DA607B681B68164A9342FF
:10284C0009D07B681B68B3F1804F04D07B681B6890
:10285C00124A934211D17B681B689B6803F00703F3
:10286C00FB60FB68062B10D07B681B681A687B68C2
:10287C001B6842F001021A6007E07B681B681A684B
:10288C007B681B6842F001021A600023184614375B
:10289C00BD4680BC704700BF002C014000040040C6
:1028AC0080B582B000AF78607B681B681B6903F051
:1028BC000203022B22D17B681B68DB6803F0020346
:1028CC00022B1BD17B681B686FF002021A617B68BC
:1028DC0001221A777B681B689B6903F00303002BAA
:1028EC0003D0786800F0B1F905E0786800F0A4F93D
:1028FC00786800F0B3F97B6800221A777B681B6854
:10290C001B6903F00403042B22D17B681B68DB6872
:10291C0003F00403042B1BD17B681B686FF00402CB
:10292C001A617B6802221A777B681B689B6903F427
:10293C004073002B03D0786800F087F905E07868C5
:10294C0000F07AF9786800F089F97B6800221A7730
:10295C007B681B681B6903F00803082B22D17B687A
:10296C001B68DB6803F00803082B1BD17B681B6812
:10297C006FF008021A617B6804221A777B681B6867
:10298C00DB6903F00303002B03D0786800F05DF9DA
:10299C0005E0786800F050F9786800F05FF97B6822
:1029AC0000221A777B681B681B6903F01003102B3D
:1029BC0022D17B681B68DB6803F01003102B1BD142
:1029CC007B681B686FF010021A617B6808221A770B
:1029DC007B681B68DB6903F44073002B03D07868B9
:1029EC0000F033F905E0786800F026F9786800F01B
:1029FC0035F97B6800221A777B681B681B6903F02A
:102A0C000103012B0ED17B681B68DB6803F001030B
:102A1C00012B07D17B681B686FF001021A61786883
:102A2C00FEF768FE7B681B681B6903F08003802B34
:102A3C000ED17B681B68DB6803F08003802B07D109
:102A4C007B681B686FF080021A61786800F067FA87
:102A5C007B681B681B6903F04003402B0ED17B681D
:102A6C001B68DB6803F04003402B07D17B681B68B5
:102A7C006FF040021A61786800F0F9F87B681B6807
:102A8C001B6903F02003202B0ED17B681B68DB68CD
:102A9C0003F02003202B07D17B681B686FF020020A
:102AAC001A61786800F032FA00BF0837BD4680BD65
:102ABC0080B584B000AF786039607B6893F83C30A7
:102ACC00012B01D10223B3E07B68012283F83C2067
:102ADC007B68022283F83D207B681B689B68FB6047
:102AEC00FB6823F07703FB60FB6823F47F43FB60F8
:102AFC007B681B68FA689A603B681B68B3F5005FDB
:102B0C003ED0B3F5005F00F28780B3F5805F00F034
:102B1C008580B3F5805F7FD8702B1AD0702B7BD853
:102B2C00602B50D0602B77D8502B3CD0502B73D8C7
:102B3C00402B58D0402B6FD8302B64D0302B6BD817
:102B4C00202B60D0202B67D8002B5CD0102B5AD0B8
:102B5C0062E07B6818683B6899683B685A683B6818
:102B6C00DB6800F05CF97B681B689B68FB60FB68AA
:102B7C0043F07703FB607B681B68FA689A604EE051
:102B8C007B6818683B6899683B685A683B68DB68E7
:102B9C0000F045F97B681B689A687B681B6842F4F7
:102BAC0080429A603BE07B6818683B6859683B68D8
:102BBC00DB681A4600F0BCF87B681B68502118468D
:102BCC0000F013F92BE07B6818683B6859683B6888
:102BDC00DB681A4600F0DAF87B681B68602118463F
:102BEC0000F003F91BE07B6818683B6859683B6888
:102BFC00DB681A4600F09CF87B681B68402118467D
:102C0C0000F0F3F80BE07B681A683B681B68194608
:102C1C00104600F0EAF802E000BF00E000BF7B685D
:102C2C00012283F83D207B68002283F83C2000239E
:102C3C0018461037BD4680BD80B483B000AF7860B5
:102C4C0000BF0C37BD4680BC704780B483B000AF6A
:102C5C00786000BF0C37BD4680BC704780B483B031
:102C6C0000AF786000BF0C37BD4680BC704780B4A5
:102C7C0083B000AF786000BF0C37BD4680BC704796
:102C8C0080B485B000AF786039607B681B68FB60EE
:102C9C007B68254A934207D07B68B3F1804F03D001
:102CAC007B68224A934208D1FB6823F07003FB60D7
:102CBC003B685B68FA681343FB607B681A4A934273
:102CCC0007D07B68B3F1804F03D07B68174A9342DF
:102CDC0008D1FB6823F44073FB603B68DB68FA683F
:102CEC001343FB60FB6823F080023B685B69134372
:102CFC00FB607B68FA681A603B689A687B68DA62EA
:102D0C003B681A687B689A627B68074A934203D1D6
:102D1C003B681A697B681A637B6801225A6100BFA1
:102D2C001437BD4680BC7047002C014000040040A5
:102D3C0080B487B000AFF860B9607A60FB681B6A3A
:102D4C007B61FB681B6A23F00102FB681A62FB685B
:102D5C009B693B613B6923F0F0033B617B681B0182
:102D6C003A6913433B617B6923F00A037B617A69FF
:102D7C00BB6813437B61FB683A699A61FB687A69AB
:102D8C001A6200BF1C37BD4680BC704780B487B048
:102D9C0000AFF860B9607A60FB681B6A23F0100220
:102DAC00FB681A62FB689B697B61FB681B6A3B6171
:102DBC007B6923F470437B617B681B037A69134343
:102DCC007B613B6923F0A0033B61BB681B013A6943
:102DDC0013433B61FB687A699A61FB683A691A6232
:102DEC0000BF1C37BD4680BC704780B485B000AFB7
:102DFC00786039607B689B68FB60FB6823F070032C
:102E0C00FB603A68FB68134343F00703FB607B6885
:102E1C00FA689A6000BF1437BD4680BC704780B416
:102E2C0087B000AFF860B9607A603B60FB689B6864
:102E3C007B617B6923F47F437B613B681A027B686F
:102E4C001A43BB6813437A6913437B61FB687A6945
:102E5C009A6000BF1C37BD4680BC704780B485B0FB
:102E6C0000AF786039607B6893F83C30012B01D15E
:102E7C00022341E07B68012283F83C207B6802221C
:102E8C0083F83D207B681B685B68FB607B681B6874
:102E9C009B68BB60FB6823F07003FB603B681B689E
:102EAC00FA681343FB607B681B68FA685A607B689E
:102EBC001B68144A934209D07B681B68B3F1804F9E
:102ECC0004D07B681B68104A93420CD1BB6823F07A
:102EDC008003BB603B685B68BA681343BB607B686C
:102EEC001B68BA689A607B68012283F83D207B6876
:102EFC00002283F83C20002318461437BD4680BCC2
:102F0C00704700BF002C01400004004080B483B027
:102F1C0000AF786000BF0C37BD4680BC704780B4F2
:102F2C0083B000AF786000BF0C37BD4680BC7047E3
:102F3C0070B500260C4D0D4C641BA410A64209D193
:102F4C0000F022F800260A4D0A4C641BA410A6427D
:102F5C0005D170BD55F8043B98470136EEE755F89E
:102F6C00043B98470136F2E7CC2F0008CC2F000821
:102F7C00CC2F0008D02F000803460244934200D106
:102F8C00704703F8011BF9E7F8B500BFF8BC08BCA3
:102F9C009E467047F8B500BFF8BC08BC9E4670470B
:102FAC0002030405060708090A0B0C0D0E0F10107E
:102FBC0000000000000000000102030406070809DD
:042FCC0031010008C7
:042FD0000D010008E7
:102FD40001000000010000000100000001000000E9
:102FE40001000000010000000100000001000000D9
:102FF40001000000010000000100000001000000C9
:10300400C80000000024F4001000000001000000CB
:0400000508001925B1
:00000001FF
